{
  "_format": "hh-sol-artifact-1",
  "contractName": "StoreContract",
  "sourceName": "contracts/StoreContract.sol",
  "abi": [
    {
      "anonymous": false,
      "inputs": [
        {
          "indexed": false,
          "internalType": "bytes32",
          "name": "eventId",
          "type": "bytes32"
        },
        {
          "indexed": false,
          "internalType": "string",
          "name": "cid",
          "type": "string"
        },
        {
          "indexed": false,
          "internalType": "string",
          "name": "name",
          "type": "string"
        }
      ],
      "name": "NewNameStored",
      "type": "event"
    },
    {
      "inputs": [
        {
          "internalType": "bytes32",
          "name": "",
          "type": "bytes32"
        }
      ],
      "name": "idToEvent",
      "outputs": [
        {
          "internalType": "bytes32",
          "name": "eventId",
          "type": "bytes32"
        },
        {
          "internalType": "string",
          "name": "cid",
          "type": "string"
        },
        {
          "internalType": "string",
          "name": "name",
          "type": "string"
        }
      ],
      "stateMutability": "view",
      "type": "function"
    },
    {
      "inputs": [
        {
          "internalType": "string",
          "name": "name",
          "type": "string"
        },
        {
          "internalType": "string",
          "name": "cid",
          "type": "string"
        }
      ],
      "name": "storeNewName",
      "outputs": [],
      "stateMutability": "nonpayable",
      "type": "function"
    }
  ],
  "bytecode": "0x608060405234801561001057600080fd5b5061081a806100206000396000f3fe608060405234801561001057600080fd5b50600436106100365760003560e01c80637acbddcc1461003b578063909ef02114610057575b600080fd5b61005560048036038101906100509190610448565b610089565b005b610071600480360381019061006c91906104ff565b6101fc565b604051610080939291906105d4565b60405180910390f35b6000333086866040516020016100a294939291906106d2565b604051602081830303815290604052805190602001209050604051806060016040528082815260200184848080601f016020809104026020016040519081016040528093929190818152602001838380828437600081840152601f19601f82011690508083019250505050505050815260200186868080601f016020809104026020016040519081016040528093929190818152602001838380828437600081840152601f19601f82011690508083019250505050505050815250600080838152602001908152602001600020600082015181600001556020820151816001019080519060200190610195929190610336565b5060408201518160020190805190602001906101b2929190610336565b509050507fed1c24d6b614cde8bbe0d7ba9111073ebbcdf4f3a47538f42c2ec81e7a5501d381848488886040516101ed95949392919061073a565b60405180910390a15050505050565b6000602052806000526040600020600091509050806000015490806001018054610225906107b2565b80601f0160208091040260200160405190810160405280929190818152602001828054610251906107b2565b801561029e5780601f106102735761010080835404028352916020019161029e565b820191906000526020600020905b81548152906001019060200180831161028157829003601f168201915b5050505050908060020180546102b3906107b2565b80601f01602080910402602001604051908101604052809291908181526020018280546102df906107b2565b801561032c5780601f106103015761010080835404028352916020019161032c565b820191906000526020600020905b81548152906001019060200180831161030f57829003601f168201915b5050505050905083565b828054610342906107b2565b90600052602060002090601f01602090048101928261036457600085556103ab565b82601f1061037d57805160ff19168380011785556103ab565b828001600101855582156103ab579182015b828111156103aa57825182559160200191906001019061038f565b5b5090506103b891906103bc565b5090565b5b808211156103d55760008160009055506001016103bd565b5090565b600080fd5b600080fd5b600080fd5b600080fd5b600080fd5b60008083601f840112610408576104076103e3565b5b8235905067ffffffffffffffff811115610425576104246103e8565b5b602083019150836001820283011115610441576104406103ed565b5b9250929050565b60008060008060408587031215610462576104616103d9565b5b600085013567ffffffffffffffff8111156104805761047f6103de565b5b61048c878288016103f2565b9450945050602085013567ffffffffffffffff8111156104af576104ae6103de565b5b6104bb878288016103f2565b925092505092959194509250565b6000819050919050565b6104dc816104c9565b81146104e757600080fd5b50565b6000813590506104f9816104d3565b92915050565b600060208284031215610515576105146103d9565b5b6000610523848285016104ea565b91505092915050565b610535816104c9565b82525050565b600081519050919050565b600082825260208201905092915050565b60005b8381101561057557808201518184015260208101905061055a565b83811115610584576000848401525b50505050565b6000601f19601f8301169050919050565b60006105a68261053b565b6105b08185610546565b93506105c0818560208601610557565b6105c98161058a565b840191505092915050565b60006060820190506105e9600083018661052c565b81810360208301526105fb818561059b565b9050818103604083015261060f818461059b565b9050949350505050565b600073ffffffffffffffffffffffffffffffffffffffff82169050919050565b600061064482610619565b9050919050565b60008160601b9050919050565b60006106638261064b565b9050919050565b600061067582610658565b9050919050565b61068d61068882610639565b61066a565b82525050565b600081905092915050565b82818337600083830152505050565b60006106b98385610693565b93506106c683858461069e565b82840190509392505050565b60006106de828761067c565b6014820191506106ee828661067c565b6014820191506106ff8284866106ad565b915081905095945050505050565b60006107198385610546565b935061072683858461069e565b61072f8361058a565b840190509392505050565b600060608201905061074f600083018861052c565b818103602083015261076281868861070d565b9050818103604083015261077781848661070d565b90509695505050505050565b7f4e487b7100000000000000000000000000000000000000000000000000000000600052602260045260246000fd5b600060028204905060018216806107ca57607f821691505b602082108114156107de576107dd610783565b5b5091905056fea2646970667358221220028ae0fb6cda7a61e93f6802927882693f5110ef772737e13267a282c767083264736f6c63430008090033",
  "linkReferences": {},
  "deployedLinkReferences": {}
}